:2080000000360120714F0300B95B0300B95B0300B95B0300B95B0300B95B0300B95B0300BC
:1C802000B95B0300B95B0300B95B0300B95B0300B95B0300B95B0300391202006D
:208040002DE9F04F8DB040F2921AC4F20E0A0125AAF8565028F07CFA2CF0B5FD2FF0A0FD5C
:20806000002445F6EA27ADF832408DF83140ADF82E40AAF8424046F20831C2F20007C2F26C
:20808000000197F82E0097F850208C7000212AF063FAAAF8480097F910100020022905D8CD
:2080A0004CF60C40C0F2030030F8110097F8201046F6C72B013148430390AAF8160046F613
:2080C000D620C2F2000BC2F200008BF80040AAF85040057046F6BB20C2F20000057042F655
:2080E0001240C2F2000004802EF08BF90720BC77AAF82C002FF054FDBAF848000021183851
:20810000AAF80600AAF82840AAF8224097F82E0097F850202AF020FAAAF8480040F28530E8
:20812000AAF80800AAF82E402FF0DDFF42F69160C2F20000047046F68E20C2F20000047027
:2081400042F67860C2F20000047097F8500042F67D6142F67265C2F200010128C2F200054C
:2081600005D1087800281EBF2870002008707820AAF82E00002005900020099001200490E9
:20818000032042F67E6608900020C2F200064FF006084FF00009019000200027029011E03E
:2081A00045F6EA20C2F20000007CBAF800100131C9B229F0CEFB002800F04E85A8F1010074
:2081C000AAF82C0007F0010445F6EA27C2F20007079400BF30F0B8F84FF0000450B930F038
:2081E000D1F838B90EF069F946F66221C2F20001088000BF46F6C121C2F20001387F09789F
:2082000080F0020081F00101084318BF0120BAF82C101FFA88F291425ED900285CD0002037
:20822000AAF82C4015F0E2FA002840F0F7870499C8B2032804D8013104914FF0060849E01E
:20824000052808D004282ED1F87E2FF003FB8046052004903EE0397F9BF80000FA7B0229D3
:208260004FF0080118BF042100284FF0080018BF0146049162B345F68820C2F2000090F864
:2082800021100229084618BF0420012908BF0846411E022942F66061C2F20001087014D264
:2082A0000620049014E00A4601F0FE01062902D1013204920CE0082808BF06224FF018089B
:2082C000049208BF40F2B44804E0042808BFFC764FF01808AAF8588042F6AB60C2F20000FA
:2082E000007828B342F6AB60C2F20000047032201AF075FE46F6DB20C2F200000078012865
:208300000CD146F6DB21C2F2000197F860000C7045F68821C2F2000181F8610045F68820D2
:20832000C2F2000080F8524022F0B6FE2FF0EAFD22F08AFF46F6C520C2F2000000780028A3
:2083400018BF28F048FC46F6CF20C2F20000007870B12EF09EFB0320012119F0D9FA002872
:2083600018BF22F099FE46F6CF20C2F20000047046F6C920C2F2000001789BF8000049B14B
:2083800040B946F6C920C2F2000004702EF039F80EE000BF46F6C821C2F20001097839B156
:2083A00030B946F6C820C2F2000004702FF0EAFC2CF011FE30B111F0C3FA287810F049FBD5
:2083C00029F062FF21F088F923F0C0F92EF048F9297808432870BAF8380042F631218842A4
:2083E00003D3AAF8384026F0CFFF28F0B1F80A9026F0C6FCBAF81C0030BB42F61140C2F280
:20840000000029780078014309061DD046F6C121C2F200010978002918BF002805D046F676
:20842000C2210120C2F2000108700220002127F047FC42F67D60C2F20000047042F61140A8
:20844000C2F200002C70047000200BF047FB2DF0EBFA282822D19BF80000F8B9BAF824009C
:2084600097F82710884219D3AAF824402FF045F846F66822C2F20002297812880843287084
:2084800062B145F68820C2F20000C07F30B146F6D620C2F200000121017000BF0A98002810
:2084A00066D00A9850B146F6BC200121C2F20000017046F68E20C2F20000017042F6986045
:2084C000C2F200000470AAF828409BF80000002858D046F6D620C2F20000012101708BF88B
:2084E0000040AAF85040387F002102281EBFAAF82C800320049097F82E0097F85020002545
:208500002AF02AF8AAF84800BAF84800AAF806000398AAF8160097F9101000200229ADF8A0
:20852000325005D84CF60C40C0F2030030F8110097F8201001314843039042F67860C2F28D
:20854000000005702DF05DFF97F8500001280CD142F61140C2F200000078002500F00F006F
:2085600004281CBF012087F83200032008900AE02878000795D142F69860C2F20000007814
:2085800001288ED04D462FF0E5FEBAF82810B7F82120CDF81880914200F25883814645F6E6
:2085A0008820C2F2000090F86100002840F0F080B9F1000F00F04A832EF0B6FA40F6AC5137
:2085C000079C884200F257839BF80000002840F052834FF000085DB9BAF82E00782807D3EB
:2085E000BC7C002C18BF0124012D04D0B14610E00024012DFAD1387CBAF80010C9B229F00B
:20860000A8F9B14628B1B87C00284FF0010018BF0446002C00F034830024AAF82E402FF006
:2086200079F82FF09FFD2FF07FF8002020F070F82E463D4646F6CE2742F61240C2F2000773
:20864000C2F200003C700480ADF832402FF062F8287C40F61C41002842F6E23008BF4FF4F3
:20866000C861012EC2F2000046F60E1208BF28210088C2F2000211800022354614F012F808
:20868000ADF8320020B101253D70002609E000BF46F67021C2F200010878089E0130013681
:2086A000087026F039FB2BF0BFFEF0B2032822BF0025ADF832500426BDF8320045F6EA27C9
:2086C000C2F200074FF00008089618B12AF8044C079C07E03AF8040C079C30289CBF059800
:2086E000ADF832004E46BDF83290B9F1000F08D00598814505D046F6D620C2F200000121C7
:20870000017046F6CE20C2F200000078012840F0BB822FF0D9FE40B20128C0F2B582BAF850
:20872000001046F20832C2F2000251706FF05A01091A11746FF052010F1A4C46A946FEB2D2
:2087400030F08BF9092E05D36FF0070050FA87F02AF068FC01202AF8140C2FF021FA0620FE
:20876000AAF80000AAF80000059446F6C72B42F6726542F67E6645F6EA27DDF81880C2F256
:20878000000BC2F20005C2F20006C2F2000721E52FF048FBC0B197F91010002502294FF088
:2087A000000005D84CF60C40C0F2030030F8110097F820100131484303900120AAF8160078
:2087C0000320ADF832500890BDF8320030B90898C0B2032802D39BF8000010B10125AAF8B9
:2087E0001640B87C002804BF0025AAF81650B9F1000F00F02B822EF097F940F6AC518842D6
:2088000000F22482BAF81600039989B28842C0F00E81BDF83200002840F00981B87C0028F3
:2088200000F005812EF076FF2EF07EFF00201FF06FFF46F20830C2F200002421ADF8324077
:208840008DF831402FF0DEFF0520012129F00CF84FF482700DF132010DF13102002317F001
:2088600063F946F26412C2F20002516A01F101015162A0B142F67861C2F200010878032814
:208880003AD397F82000B8BB97F9101002292BD84CF60C42C0F2030232F8111025E0BAF882
:2088A000160046F670230130AAF81600C2F2000342F678621878C2F2000211780130187099
:2088C000481CC1B2032910704ED397F91000114602284FF003020A703CD84CF60C41C0F2C0
:2088E000030131F8100036E000210130484342F67861C2F20001039046F67020C2F200006F
:20890000047042F67B60C2F200000470387C0C7097F82410022840F61C4208BF41F2D472B7
:20892000002808BF4FF4C862002946F60E11C2F200010A8002D008884000088008880DF160
:2089400032010DF13102012317F0EEF80546002001900AE0002097F82010B1FA81F201318D
:208960005209484390400390002526F0D5F92BF05BFD4FF00100AAF816008DB30420AAF834
:2089800000009DF83100B8B346F20833C2F200034CF6F83298700628C0F20302BAF8001061
:2089A00098BF02441478597030F057F8A4F1080000242AF037FB0121012001902AF8141C23
:2089C0002FF0EEF80520AAF80000AAF800000020089003980021ADF83210AAF8180026E00E
:2089E0003AF8040C002530281BD89BF80000C0B90598ADF8320019E00025ADF832503AF8CE
:208A0000040C30284FF0030008900AD89BF8000038B9059840B1ADF832000020002508906C
:208A200005E00020059002E00320089000259BF80000002840F00A81BAF81800039989B2C3
:208A40008842C0F00381002D00F00081387CBAF80010C9B228F07DFF002800F0F780B87C32
:208A6000002800F0F380ADF832402EF05DFE46F20830C2F2000044702FF074FB46F6CE204B
:208A8000C2F20000047042F61244C2F20004002121802EF03FFE9BF8001042F67F6202206D
:208AA000C2F20002012309F043FA46F26413C2F2000319695A6A0131196142F67861C2F289
:208AC00000010978208801320329ADF832005A620ED397F82010002481B997F91020022A90
:208AE00008D84CF60C43C0F2030333F8122002E0002403E0002201315143039142F678617A
:208B0000C2F200010C7046F20831C2F20001C8802BF08AFCB87F97F824100130C2B29142A3
:208B2000B8773EBFBC770120AAF81800BDF832904FF00008B9F1000F12D00598079C81459C
:208B400046F6CE20C2F2000011D0007828B146F6D620C2F200000121017046F6CE2004E07E
:208B6000DDF8149046F6CE20079CC2F20000007800210028089808BF411CC8B20328089138
:208B800007D30120AAF8160000250420ADF8325008900198D0B1B87FC0B946F20831C2F22B
:208BA00000018878097A013821FA00F0C0070DD146F20830C2F200006B21C1700120AAF8A4
:208BC000160000250420ADF832500890BDF83200002800F01E8346F20830C2F200008078BB
:208BE00038B142F67F60C2F200000078002800F010832FF069FC46F20832C2F2000210746E
:208C0000BAF800100028517000F00383A0F14C07CDF81490A946FEB22FF01FFF092E05D3FB
:208C20006FF0070050FA87F02AF0FCF90121012002902AF8141C2EF0B3FF0720AAF800003E
:208C4000AAF80000002001908FE500BFDDF81490079C4FF0000817E045F6EA20C2F200003B
:208C6000007CBAF80010C9B228F073FE00287FF4A5AAFFF7A7BADDF814904FF0000803E0CE
:208C80000598079C4E46814645F68820C2F2000090F8200090B3029880B345F68827C2F24C
:208CA0000007BAF80000D7F8061046F20836C2F20006307001F0030040EA80002AF0B2F9E3
:208CC00001202FF0BEFE07202FF0BFFE2EF02CFDD7F8060042F67E62C2F2000245F6EA275F
:208CE000314646F6C72BC2F20007C2F2000B164625F098F82BF098FB0020029042F67260EA
:208D0000C2F20000007800070DD046F6D620C2F20000007838B90999BDF8320089B20843E5
:208D200008BFADF83290F87B002847D0BAF82200312843D346F6BB22AAF82280C2F20002FD
:208D4000117846F68C2301311170099A01201104C2F200031146187003D1BDF8321051B1B0
:208D6000002042F61242C2F20002118046F6B821C2F2000108701BF053FC30B146F6B9216D
:208D8000C2F2000108780130087046F67920C2F20000007890B146F6792046F6BA23C2F211
:208DA0000000C2F2000380F80080187846F6B9220121C2F20002013011701870BAF8060093
:208DC000BAF84810884205D346F6D620C2F20000012101709BF80000F97B08430BD1BAF88E
:208DE0002800B7F82110884205D946F6D620C2F200000121017046F6D620C2F200000078EC
:208E0000002800F0D4802DF08FFE40F6AC51884200F2CD809BF80000E0BBBAF82800B7F849
:208E20002110884236D9B87B012802D1AAF8288030E001208BF80000AAF850002EF0A2FF4A
:208E400046F670210020C2F20001087042F67B61C2F200014FF00008087028F03BF82FF006
:208E60003BF92EF0A1FD2BF0AEFE2DF0E5FD27F043FB97F82F0097F85020012129F06CFB88
:208E8000AAF8480097F85000012804BF0A2087F8320000BF9BF8000090B146F69223C2F20A
:208EA0000003197845F68820C2F2000008440131CAB2807A0F2A88BF002119702AF0B2F8A5
:208EC0002DF0CEFB42F67262C2F2000211780843BDF83210107042F61240C2F200000180E0
:208EE0000998000446F6B820C2F2000080F8008028D045F6EA20C2F2000042F61241099AEE
:208F000090F83600C2F200010A8046F6B82100284FF00100C2F20001087013D046F23870E7
:208F2000C2F200000127A0F8048000BFF8B20021002201F089FE28B92CF001FB032F07F1F2
:208F40000107F3D345F6EA20C2F20000007F68B146F6C120C2F20000007838B946F62020FC
:208F6000C2F200000068002111F0BFFC46F620200021C2F20000016042F61240C2F2000008
:208F8000018046F6BC20C2F20000017046F6D62042F67E6645F6EA27C2F200004FF000087E
:208FA000C2F20006C2F200070170AAF806102BF00AFE2EF04BF942F69560C2F20000007835
:208FC00040B124F0F6FE28F076FC46F66221C2F20001088045F68820C2F2000090F85200A1
:208FE00058B13AF8080C962807D345F68820C2F2000080F8528022F04FF8BAF800003070FE
:20900000BAF80010C0B28142CDF814902FD09BF80000A94642F67265DDF818800028C2F217
:20902000000540F0C7800999BDF8320089B2084397F82E0000F0B780811FC9B2FA2900F291
:20904000B98097F85020002129F086FA4000AFE00A99099A0029114618BF0021002808BFA2
:209060000A4609923078BAF800108142CFD19BF8000018B12EF086FE26E000BFF87B20B929
:20908000BAF82800602888BF0124BAF81400042838BF0024787CB8B1200615D1387CBAF826
:2090A00000100131C9B228F054FC58B9387CBAF80010C9B228F04DFC20B932202BF032FDB3
:2090C00029F08FFF002400BF27F06EFA12F09CFD2CF035FA2FF085F8B87C20B90A9800282E
:2090E00018BFADF83280787C0028B1D09BF80010002908BF5FEA0461AAD1387CBAF8001073
:209100000131C9B228F025FC08B10024AAE7387CBAF80010C9B228F01CFC4FF0000900286A
:209120004FF000049ED101200DF12E01ADF82E900EF0BAFCBDF82E10044600200EF0A4FB1E
:2091400042F61240C2F20000008880B146F22221C2F200010988884209D146F6B821C2F2EA
:209160000001097800291CBFADF8328081460C20AAF8420042F6B860C2F20000007878B196
:2091800074B142F6B8600024C2F2000004702EF0F9FD2DF07EFC4FF00008AAF842400124D3
:2091A000CDF824905EE797F85020002129F0D4F9AAF84800787C012710B39BF80000F8B9DE
:2091C00046F6D020BAF84270C2F2000000780C2F02D330B1002713E088B12EF0D3FD002081
:2091E00002E02DF00EF901200C2F4FF0000746F6D02138BF0127C2F20001087000E0012746
:20920000BAF82C001FFA88F18842FEF4DBAFFEF7C7BF012002900020019035E52FF01DFC67
:209220000020AAF856000DB0BDE8F08F86B040F292140020C4F20E04ADF816001EF0A0FCDA
:2092400045F68826C2F20006D6F8060046F63021C2F200011FF02AFD2EF094FD15F0D6FC99
:209260002BF0E5FC2DF0E8FB0AF0CAFD2EF03BFF96F85200013086F8520021F00DFF24F0C7
:20928000C9FB2DF0E8FB4FF46170A4F84A0040F285302081F120A08796F86120717F012030
:2092A000002A08BF032001222FF0C7FB706B2FF0CAFB96F861502EF0ABF996F8611009B11D
:2092C0000DB906E02DB9022803D125F07FFB2CF066F896F8520045F6EA2846F662250428D9
:2092E000C2F20008C2F2000502D322F06DFF10E013F040FE28F0DFFA42F691620023C2F282
:2093000000020121B3EB502F2880117008BF88F84710B07F0121012804BF1820A6F84300EF
:2093200003204FF0010A2FF036FB4FF0000B46F6C7290020A4F810B0C2F20009029000200F
:20934000019001E02FF089FB2EF01CFD2EF02CFB2BF039FC42F6A960C2F200000078002897
:2093600046F6DA20C2F2000080F800B055D146F6B720C2F2000080F800B027F0BDF846F6BE
:20938000D920C2F2000080F800B046F68520C2F2000080F800A042F67460C2F2000024F86F
:2093A00004BC80F800B042F6E230C2F20000A0F800B046F6BA20C2F2000080F800B046F651
:2093C000B520C2F2000080F800B046F62020C2F20000C0F800B0A4F83EB02DF05AFBFEF753
:2093E0002FFE2EF080FE2DF031FF42F66160C2F20000A4F822B0A4F828B080F800B042F668
:209400008E60C2F20000A8F81EB080F800B0E08FB0F5E15F28BF2BF00AFC46F23875C2F21F
:209420000005A879E97946F6DA22C2F2000282F800A02BF0CDFC208005F10C002DF0FEFDFE
:2094400042F68460C2F2000000780A280DD342F68460C2F200000A21017042F65460C2F2A6
:20946000000088F814B0A0F800B098F8140042F6A965C2F2000528B92BF0D9FB42F6A965A7
:20948000C2F2000598F8140028B12CF07DFA42F6A965C2F200052878002808BF1CF07AFBF4
:2094A00098F82E0098F850200021002729F054F8A4F8480046F23870C2F20000808826F0AB
:2094C0005EFC42F67761C2F2000108702F7046F6D62546F6B920C2F20005C2F200002F70FE
:2094E00089F80070A4F8507024F8027C077046F6BE20C2F200000021049107702EF039FEBE
:209500002CF07FFF2DF0F9FF42F67262C2F2000211780843107003E02CF011F82EF061FE01
:2095200042F6AB60C2F200000078F8B142F6AB60C2F2000080F800B0322019F050FD46F610
:20954000DB20C2F200000078012809D198F8600046F6DB21C2F2000181F800B086F86100FC
:2095600086F852B021F098FD2EF0CCFC46F6C520C2F200000078002818BF27F02CFB46F619
:20958000CF20C2F20000007878B12DF082FA0320012118F0BDF9002818BF21F07DFD46F625
:2095A000CF20C2F2000080F800B046F6C920C2F20000017899F8000051B148B946F6C920D5
:2095C000C2F2000080F800B02CF01BFF0FE000BF46F6C821C2F20001097841B138B946F651
:2095E000C820C2F2000080F800B02EF0CBFB22F0ADF8E08E45F26041884222BFA4F836B099
:2096000088F825A085F800A098F80F00C0B12BF03AFF42F660610428C2F2000108700FD152
:20962000B8F81500302824BF3020A8F81500B8F81700302824BF3020A8F8170088F81DB0CF
:20964000374626F085FF06462DF00AF842F67263C2F20003197899F800200843002A187085
:2096600018BF12F0D1FAA08B80BB42F67D60C2F20000017842F61140C2F2000000780143A5
:20968000090623D046F6C121C2F20001097800291FBF002846F6C220C2F2000080F800A05B
:2096A0000220002126F00CFB42F67D60C2F2000080F800B042F67260C2F2000080F800B073
:2096C00042F61140C2F2000080F800B0002E57D046F6BC20C2F200003E4680F800A099F8D7
:2096E000000042F69861002846F6D820C2F20001C2F2000081F800B080F800B02BD0012007
:2097000089F800B0A4F850B085F800B02CF018FA00283FF417AE46F6BA21C2F200010878B5
:209720000130087046F6D120C2F20000A4F822A080F800B02CF065FE98F85020A8F81EB02C
:20974000012A08BF88F832A098F82E00002128F003FFA4F8480089F800B0A4F850B0A4F87F
:2097600028B096F861502DF053FF96F86110F9B1002D46F6D625C2F200051FD12BE000BFE3
:2097800042F67260C2F2000000783E460007A6D146F6D820C2F20000007801289FD042F661
:2097A0009860C2F2000000780128DAD197E700BF002D46F6D625C2F200050CD102280AD175
:2097C00010F0BEF842F67260C2F2000000780FF040F928F059FD1FF07FFF21F035FD99F896
:2097E000000070B334F80E0CB0F5966F82BF85F800A000200490E088B4F84810884207D235
:209800002CF065FE002818BF24F802AC02E000BF24F802AC0CF051FE46F66221C2F20001D6
:209820000880208F42F63121884203D3A4F838B025F0AAFD287820B934F8020C00283FF479
:209840006BAE42F61240C2F2000000882BF004FE46F23870C2F2000080882188C9B212F04A
:209860001EFC2088C0B22BF0CDFA96F8615003902DF0CEFE002D18BF02285CD1039846F6E5
:20988000D62501380328C2F2000500F27F82DFE810F004007F007500290142F67761C2F210
:2098A000000120880978884240F0D98199F80000002840F0D48198F81400002800F0668248
:2098C00096F86100012842F6AC60C2F2000080F800A040F0F88146F23870C2F2000080881B
:2098E0002DF0AAFE912809D342F67760C2F2000000782CF0FDFD002800F0FB83002542F6CA
:209900007760C2F2000000782CF0F2FD4DF2C046C0F201060199721B0029114618BF4DF67A
:20992000A861002808BF114608462BF0FBF801202FF085F8C8E199F8000000289ED198F85E
:20994000140038B142F67761C2F2000120880978884293D0A08C98F827108842FFF48EAF02
:20996000A4F824B02EF02EF92DF0C7FD42F67262C2F200021178084310707FE798F8100035
:20998000002840F003822AF050F8002840F0FE810398022842F69B60C2F2000080F800A0ED
:2099A00002BF42F6AD60C2F2000080F800B046F6B720C2F200000078022805D846F6B7216B
:2099C0000130C2F20001087099F8000020B134F8020C002800F0DA8198F81000022806D179
:2099E0002088052803D020881D2840F0CF8146F68620C2F2000080F800B042F69C60C2F2AC
:209A0000000080F800B02EF0A5FC002843D02DF08BF840F6AC5188423DD898F81F0098F833
:209A20001D100130C2B28A4288F81F0002D834F8020C80B32DF06EFE42F68762C2F2000242
:209A4000107800230130C0B2112828BF112099F800101070039842F67F62C2F2000208F0E4
:209A600067FA42F69C600122C2F20000027098F81E000121019198F824100130C2B291426A
:209A800088F81E0007D246F68620C2F200000121A8F81EB0017042F61240C2F200000088F2
:209AA00040B146F6C120C2F200000078002808BFA4F806B034F8020C002800F0D4800499E8
:209AC00098F8240001310491C9B28842C0F01B8142F61240C2F200000088002818BF24F899
:209AE00002BC12E12EF030FC48B92EF04BFC30B90CF0E3FC46F66221C2F20001088046F609
:209B0000C021C2F20001087888B30D462EF039FF287842F66261C2F20001002842F68260B9
:209B200081F800B0C2F20000294680F800B012D044F2C8050026C2F2000500BF284627F0A9
:209B400064FC46F6C021C2F2000108780136864205F14805F2D3642081F800B019F03FFA5D
:209B60002EF011FF46F6D6253E46C2F2000599F80000002842F6AD60C2F2000080F800B069
:209B80000AD12EF02FFC38B9208DB8F82110884202D8039806F076F998F8140028B345F6C4
:209BA0003870C2F200000088F8B12EF091FB45F63871C2F200014A8809888A4238BF8842E5
:209BC00013D3084629F0CEFF78B145F63870C2F20000008829F0EBFE2CF00AFA86F852B081
:209BE00021F05AFA00202DF00DFE96F86100012820D1208F42F63121884203D3A4F838B052
:209C000025F0C2FB98F81400A0B146F6C420C2F20000007870B145F63870C2F200000088F1
:209C200024F00AFF00281EBF46F6D220C2F2000080F800A025F0A4F82EF092FB002800F094
:209C4000A58042F67660C2F20000007800210AFA00F080B20122012328F05EFA96E0039896
:209C600006F010F992E046F68520C2F200000078012809D146F68520C2F2000085F800A0B1
:209C800088F823A080F800B042F67260C2F200000078000746F6BF2018BF85F800A0C2F259
:209CA00000000078002818BF85F800A096F8610001286BD142F69C60C2F200000078002834
:209CC0007FF42EAC62E000262DF07CFF2DF02CFD00202EF0B6FE46F6FC00C2F2000025F0FE
:209CE000CFFE05462AF0A0FBE5B142F68E60C2F2000080F800B041F20C7046F6D6250644CF
:209D0000C2F200051EE024F802BC46F68620C2F200000078012839D196F8610001283FF426
:209D2000FFAB33E042F68E61C2F200010878013008702DF0AAF946F6D6250644C2F2000567
:209D400085F800A097F8610080B146F23870C2F2000080882DF070FC912807D342F67760FE
:209D6000C2F2000000782CF0C3FB18B130460DF037F906442EF071FE4DF29000C0F2030016
:209D8000801B2AF0CFFE2DF00BFF3E46012009F0A5FE2DF05BFA42F69560C2F2000000780E
:209DA00040B124F006F827F086FD46F66221C2F2000108802BF08EFC46F6B920C2F200009C
:209DC000007802283FF6BEAA42F68E6198F81400C2F200010978002818BF012005294FF0B6
:209DE000000188BF012108427FF4ACAA42F66160C2F20000007817283FF6A4AA46F668203B
:209E0000C2F20000008820B1F07F002818BF85F800A042F61240C2F200000188608C0029CE
:209E20000CBFB8F81710B8F81510884228BF85F800A099F80000002808BF28F0B1FB2EF07B
:209E4000D0F946F6D122C2F200022088117842F67E67C2F20007387029B1002100200190F7
:209E60001170FFF75DBB2AF0AEFE05E0029F029742F67E67C2F2000738782188814240F04A
:209E8000DD8011F0C1FE39782088884226D198F81100D0B198F80F2032B142F69B60C2F2E0
:209EA0000000007870B910E0208D60284FF000000CD899F800304BB942F69B63C2F2000307
:209EC0001B781BB1A08A04286CD2002020B10298000601D129F085F82BF031FB98F81100AE
:209EE000F8B142F67E6098F80F20C2F20000017832B142F69B60C2F20000007870B910E05C
:209F0000208D60284FF000000CD899F800304BB942F69B63C2F200031B781BB1A08A042882
:209F20002ED200200028A1D0029F38067FF49FAF00200DF11601ADF816B00DF0B5FDBDF8C4
:209F40001610074600200DF09FFC0C20A4F8420042F6B860C2F200000078002818BF002F22
:209F60003FF485AF42F6B860C2F2000080F800B0A4F842B02DF006FF2CF08BFD012776E775
:209F800098F8140000B34D1CE8B2302842F67760C2F2000088BF01250078E9B2814215D123
:209FA000002022E098F8140020B34D1CE8B2302842F67760C2F2000088BF01250078E9B26A
:209FC000814219D1002026E00120ABE742B3681CC1B2302942F67761C2F2000188BF012089
:209FE0000978C0B2401A18BF012046F6D625C2F2000597E7012069E7CAB1681CC1B2302972
:20A0000042F67761C2F2000188BF01200978C0B2401A18BF012046F6D625C2F2000555E7A2
:20A0200098F8100027F095FC0028B9D1CFE798F8100027F08EFC0028C4D1DEE725F0B6FFE3
:20A04000B0FA80F099F800104009029000294FF0000001907FF464AA98F80E0001283FF4F6
:20A060005FAA208DB8F8211088424FF0000001907FF656AA00202EF079F989F800A0A4F8CD
:20A0800050A02DF04FF926F025FF2EF025F82DF08BFC2AF098FD98F82F0098F850200121C2
:20A0A00028F05AFAA4F848002DF06CFE2CF0C4FC2DF050FE46F6B920C2F20000A4F824B049
:20A0C00080F800B04FF4966024F80E0C98F85000012804BF0A2088F8320026F00DFA46F6E8
:20A0E000D9200022C2F20000002101910270FFF717BA00200CF074FF0546FFF700BC704762
:20A1000038B586B004468DF805104FF6FF720120ADF80220090ADFF8C05AADF800000223CC
:20A120008DF806108DF8043069462A7820462EF0E1FF162803D1297820462EF0D7FF07B052
:20A1400030BD3EB504000D461ED0DFF8900A006822462EF0C7FFFF2815D0002000900023D6
:20A1600001AA294620461EF095FC60B99DF8040000F071F9C00606D59DF8040000F06BF926
:20A1800010F0040000D001203EBDFEB5164615244FF6FF7290420D4615D100208DF804001D
:20A1A000DFF8347A9DF80400F97988421AD23246294600F03EF800B100249DF80400401C82
:20A1C0008DF80400EEE72EF089FF50B100F09DFB40B99DF804003246294600F02AF8002443
:20A1E00000E014242046FEBD7CB50D46044606214C43164620346A46082120462BF07CFD1F
:20A20000A8B900F078F890B99DF80700002E14BF054320EA0505E9B2814206D08DF807502B
:20A220006A46082120462BF07BFD012076BD002076BD2DE9FC41064634460623884615463A
:20A240005C436A46082104F120002BF055FD00284ED100F050F800284AD100F028FA04002C
:20A2600002D100F01CFA43E0397AE03689062246090E30462BF040FD002835D1204600F0B9
:20A2800052F85FEA08000ED13A7A9206120E002120462CF0D0FC38BB3A7A920000212046A9
:20A2A0002DF064FB16E0214600F02AF858B9280004D02146002000F023F810B900F00FFC50
:20A2C00016E0A0F800808178A9420DD085700DB900210180204600F026F8397A8906224634
:20A2E000090E30462BF01CFD00F0F9FB012000E00020BDE8F6810622FF2168462CF09BBC13
:20A3000070B5DFF8D4381D7A002200E0521CD4B2AC4206D231F824608642F7D101EB840035
:20A3200070BD002070BD10B50021DFF8AC280AE030F82130DB4320F8213000EB8103491C54
:20A340009C78E4439C70137A9942F1DB10BD2DE9FE4FDFF884480646207A0F4691469A46BD
:20A3600080002DF077FE5FEA000803D100F097F90A206EE00C9D02974FF0060B37461BFB89
:20A3800007FB029A08210BF120002BF0C9FC8DF80400304600F09AF8227A00F07BF99DF8E4
:20A3A000040000904246217A8906090E06F1E0002BF0B6FC009E02990643206A082200EB7B
:20A3C000C7002DF0DDFAF5B11022002128462CF032FCC0B90299887900232A4600F0010078
:20A3E0002EF078FE00281CBF9DF93C00002803D0DFF8EC17012008702A4610210BF12300C6
:20A400002BF08EFC06435FEA090205D01C210BF121002BF085FC06435FEA0A0205D01C217F
:20A420000BF122002BF07CFC06430D9A4AB110210BF124002BF074FC06430EAA00F032F988
:20A440000643A07D08B100F095FA40462DF0FAFDF0B2BDE8FE8FE0B5062358436A460821BE
:20A4600020302BF049FC10B99DF807000EBD00200EBDDFF86407007808211CF0D1B838B5AC
:20A480000025DFF8544718E0206A06236B4300EBC5022033082198B22BF02EFC58B1206A7C
:20A4A0000622FF2100EBC5002DF060FA206A00EBC5010022CA716D1CEDB2E1798D42E3DB86
:20A4C000A07D10B1BDE8314054E231BDF8B5DFF80817DFF81037C9791E680C460A4600E059
:20A4E0002A46D5B23DB1551ED2B2324412F8017C8742F5D12C46E4B220464D1E07E0171805
:20A50000165C7F7817541A680244401C5670A8421A68F4DBAC4204DABDE8F84005202BF059
:20A52000FFBBF1BD70B50024DFF8AC5600E0641CE879E3B283420BD22B6AE6B20622FF2124
:20A5400003EBC6002CF077FB0028F0D0E0B270BDDFF89426117839B1DFF8880601680C78BC
:20A56000204600F013F8204670BD38B500200024DFF8645603E0E0B200F008F8641CEA79DD
:20A58000E1B2914201D20100F5D032BD2DE9F84F8146CB46062313FB0BFB8EB00BF12005FC
:20A5A00001AA082128462BF0A7FB002869D10622FF2101A82CF03FFB002862D100F077F839
:20A5C0005FEA000803D100F06AF80A205BE01C22FF2103A82DF0CAF93A7A00F05BF80BF1C3
:20A5E00023060AAA102130462BF086FB60B91022FF210AA82CF01FFB30B99DF80A0001A9B6
:20A6000000F001002EF062FD082200F03FF801AA082128462BF084FB054603AA1C210BF16E
:20A6200021002BF07DFB8DF8000003AA1C210BF122002BF075FB044603AA102130462BF095
:20A640006FFB064603AA10210BF124002BF068FB824603AA00F026F89DF800100D432543E8
:20A660003543397A4AEA0505054389064246090E09F1E0002BF054FB054340462DF0E2FCEE
:20A6800000E0002528460FB0BDE8F08FFF2101A82DF06CB99200FF2140462DF067B90420C0
:20A6A0002BF0C8B804210BF125002BF039BBDFF82875387A80002DF0CDBC2DE9F84187B0D8
:20A6C000FF208DF80000DFF81055E8792DF0C2FC040003D1FFF7E3FF0A2030E01022FF2122
:20A6E00003A82DF043F9EA79FF2120462DF03EF90622FFF7CBFF03AA102102202BF010FB0B
:20A70000064603AA102103202BF00AFB06436A46012104202BF004FB0746E9792246052037
:20A720002BF0FEFA054601AA062106202BF0F8FA804600F0D4F93E432E4348EA060008B051
:20A74000BDE8F081DFF89014408809782BF070BAF0B5A9B006460D4614462EF0BFFC08B949
:20A760001420A6E0A422002168462DF0FFF8ADF80060DFF86464F078F17B279A8DF80400B4
:20A780005208307C8DF8A0004B0801F0010040EA420222F0020203F0010342EA430208094C
:20A7A00022F4807200F0010042EA0022480922F4007200F0010042EA4022880922F4806271
:20A7C00000F0010042EA8022890822F0040201F00101707C42EA8102279202280CBF0120B4
:20A7E00000200DF1260778742EF06CFC412807DB707C00B108209DF8991008438DF89900E5
:20A80000F07CB8B10121B974202206F188010DF139002DF0B5F8202206F1A8010DF1590018
:20A820002DF0AEF8202206F1C8010DF179002DF0A7F800E0B874707B8DF8050090B1DFF887
:20A84000AC73102207F110010DF106002DF098F89DF89900082805D1102239460DF11600F4
:20A860002DF08EF8307B8DF8260030B11022DFF880130DF127002DF083F8307948B1022DD4
:20A8800018BF032D03D1279840F002002790012100E000219DF899000143B0788DF899104A
:20A8A00000B1042001438DF89910684621462EF005FC29B0F0BD2DE9FC41154615244FF66B
:20A8C000FF72904288460ED10027DFF80C63F179F8B2884216D22A464146FFF785FC00B136
:20A8E00000247F1CF3E72EF0F9FB50B100F00DF840B99DF804002A464146FFF775FC0024A3
:20A9000000E014242046BDE8F681002100910023417901AA01F00101801D1EF0BBB870B52D
:20A9200004460D4606204543082B88B0164603D1300758BF223500D521351C220021FFF70C
:20A94000A6FE01AA1C2128462BF0D6F980B99DF81E00C01F0A280BD29DF830000090F208EA
:20A9600001AB02F0010206F0010120462EF0A2FB08B070BD38B52EF099FB0024964D0FE0A3
:20A98000286A0622FF2100EBC4002CF054F928B9286A00EBC40100202EF084FB641CE4B2CF
:20A9A000E8798442ECDB31BDF0B5924D0646686885B04FF6FF7438B9009502238E4A214644
:20A9C00001202EF06BFB6860696819B30222FF2002920023039001930DF112072A880097EC
:20A9E00004AB30460DF062F960B99DF810009DF8111000EB0122100004D068684189304664
:20AA0000FFF7C3FB2A886868002321462EF042FB686008B9012000E0002005B0F0BD3EB51C
:20AA20000C46002501460095002301AA20461EF031F838B99DF80400FFF70DFDC00601D433
:20AA400001203EBD00203EBD2DE9F0416B4F3C6806468846154603E02089B04224D02468A7
:20AA6000002CF9D10C202DF0F5FA040019D0268184F80A8000202060E07245B1082128468F
:20AA80002CF072FA606018B900F029F80AE06060396811B93C6004E0014608680028FBD14C
:20AAA0000C600CB9152018E02EF0F0FA08B1002013E00120E0722A4641463046FFF748FE48
:20AAC00004464548C06900281CBF4368002B03D000220021304698472046BDE8F081204650
:20AAE0002DF0B0BA38B505464448046803E02089A84204D02468002CF9D1012032BDE07A69
:20AB0000012807D100F05CF820B13348007804211BF086FDE17A491CE1722846C9B200F08D
:20AB200002F8002032BD38B5022904462A4D02D003290DD01EE042F6C921FFF7E1FA020065
:20AB40001CBFE869002818D04368B3B105210CE042F6A621FFF7D4FA01001CBFE96900297E
:20AB60000BD04B684BB102460421204601B0BDE830401847BDE8324000E031BD10B51F4A40
:20AB80001468002101E0214624686CB123898342F9D1206800290CBF10600860606808B117
:20ABA0002DF050FAFFF79BFF002010BD024604201249096819B10B899342FAD1C87A704782
:20ABC0000E48006828B1006818B1C17A0029FAD17047002070470000B41F0020680F002066
:20ABE000B16A0020C8690020B06A0020D864002008650020E868002088CC0300CC6900208A
:20AC000038B584B004462EF069FA0622417901F001018DF80E10811D02A82CF0B1FE00209D
:20AC2000009000239DF80E1001AA02A81DF032FF9DF80400FFF7AAFC0546052120462EF0F1
:20AC400021FA284605B030BD2DE9F04F81B0884642F67261C2F2000100920A7842F67D6587
:20AC60000646002AC2F200054FF0000018BF2A70087046F69221C2F200010A7845F6882470
:20AC8000C2F20004A0180132D3B2807A0F2B88BF00220A7028F0C6F92CF004FA42F61247F3
:20ACA000C2F20007398879B146F6B821C2F20001097849B14CF25131401A4EF65E21884202
:20ACC00002D83C2028F0AEF945F6EA29C2F2000999F8140030B128F063FF46F61821C2F24B
:20ACE000000108600120B8F1000F18BF02202DF0A8FE07202DF0A9FE287806F003010207C8
:20AD000041EA001607D42DF02DF800280CBF66F07F0606F0730646F67920C2F20000057892
:20AD2000B00860F39F0546F6C720C2F200000078B8F1000F08BF3546002846F6BC20C2F227
:20AD40000000007818BF45F00805002846F62020C2F20000066846F6BA2A18BF45F0040567
:20AD6000C2F2000AF6B146F6BF21C2F200010878002870D046F6D420C2F20000007890B316
:20AD800094F861009AF80010002801F001002DD0002855D146F66820C2F20000008800F5CA
:20ADA000E81658E094F861109AF8000000294AF6AB21CAF6AA2128D0A0FB0112510801EB23
:20ADC0004101401A022800F03882012800F03982002840F03B8246F66220C2F20000008820
:20ADE00000F5E02633E20020087034E060BB46F66820C2F2000000884FF4604141EA9000DD
:20AE00004EF6FF7100EA010625E0A0FB0112910801EB4101BB46A0EB4107052F00F2A682F1
:20AE2000DFE817F00600A602AB02AE02B102B90246F66220C2F20000008840F4E046AFE2E6
:20AE4000608C00F5E81606E0668C0E20022E28BFB60860F31F3645F64C3BC2F2000B584671
:20AE600060212DF0CFFC94F8610000280CBF07202AF0DAFD46F6B821C2F200018BF8000024
:20AE8000D4F806000978CBF804008BF8121038889AF80010ABF808008BF81110D9F802006F
:20AEA000D9F80610D9F80A20CBE9090146F2387199F83600C2F2000189888BF81400B4F841
:20AEC0001B00ABF80A1099F83810CBF82C20ABF8150099F8230099F82520636A46F2641AED
:20AEE00001F00101C2F2000ACBF80C608BF810508BF817808BF81810CBF81C308BF8210017
:20AF00008BF820205146FCC90BF13000FCC091E8FC00FCC02CF008FC9BF8120042F6966105
:20AF2000C2F2000130B942F67D60C2F200000078400701D00020087045F68820C2F20000EB
:20AF400090F8610001280BD12AF045F840B12DF0D7F928B1BBF8080040F40040ABF808001B
:20AF600045F64C3446F29067C2F20004C2F20007009A2046394606F01BFC054629F054FA36
:20AF8000B8F1000F0AD099F8380038B145F68820C2F20000406A4FF0000840B3AB460025DC
:20AFA000B8F1000F39D1E07D002100284FF000000CBF58465D4698B1FA6844F6D35302F2DF
:20AFC000F312C1F2620389F82510397AA2FB03239A09B1EB931FFA6082BF891A0831397215
:20AFE000DAF8001083460131CAF8001015E0386946F67A21C2F2000181F8008030B145F66B
:20B000008821C2F20001486220F046F84FF001084FF0000BB8F1000FC5D0BBF1000F00F050
:20B020009D8146F6D320C2F20000017839B146F6BF220521C2F20002117000210170387DEB
:20B0400042F69661C2F20001087046F6C720C2F20000007800260421002889F8236097F83F
:20B06000078008BF08215AF801003C7A01304AF801002DF0F2FC092C03D3A4F1080027F012
:20B08000D1FF40F27A1AC4F20E0A0124AAF804402CF086FD08F10100C1B2302988BF012074
:20B0A000C0B2AAF8180046F6D120C2F2000099F84710047046F6BC20C2F20000067061B1D3
:20B0C00045F688200024C2F20000A0F8554089F846401FF0E1FF89F8474029F07CFF98B1AD
:20B0E00046F6B820C2F20000007858B942F6966042F61241C2F20000C2F2000100780988D4
:20B100001AF05AFF2CF0DAFF42F67D60C2F200000078000703D00120012124F0D1FD42F65F
:20B120007D60C2F20000017899F84C000A0701D0012803D0042908BF022801D12BF04FFCF4
:20B1400046F6D728C2F2000898F8000030B1002088F8000024F018F92CF0D4FE46F6DB2697
:20B16000C2F200063078012811D199F8601045F688220020C2F20002307082F8611082F8A1
:20B1800052001FF089FF24F0FFF82CF0BBFE46F6C120C2F200000078002842F61140C2F238
:20B1A000000007D0017829B146F6C221C2F2000101220A70002242F67D61C2F20001027095
:20B1C00045F688200A70AAF83420C2F2000090F8610046F6202446F668230028B879B9889E
:20B1E000C2F20004C2F2000322601A8007D0002206F0F6F845F64C34C2F20004AEE00A4696
:20B200006FF31F32134660F30F330138236045F64C340628C2F2000400F2A08001F4704772
:20B22000DFE800F0045C6D9C8B8E9100BAF82800272800F2F68000208BE06B26C0F20606D9
:20B2400005E0B4F8530000F5A01600E0002646F61820C2F2000099F81410006899F844201F
:20B26000002918BF40F4502632B126F024FB46F66221C2F20001088099F8440099F8471053
:20B28000084307D046F66220C2F20000008800F558160FE042F69160C2F20000007899F85A
:20B2A0002310084306D046F66220C2F20000008800F5E02646F66820C2F20000008800281D
:20B2C0003FF451ADE17F00293FF44DAD9AF80010C90718BF608C00F5E81644E5100A0828EC
:20B2E0003CD8DFE810F00900D800DF003B00EA00EF00FE000D01120125F0FEF82EE0322A0B
:20B3000000F09D80192A40F0A58045F68820C2F20000807F032821D145F688210420C2F219
:20B3200000018877012088F80000002081F852001FF0B2FE26F0E6FA10E02CF004FC07E0D9
:20B3400047F06B0005E046F66220C2F200000088384346F62021C2F200010860E07D0028D2
:20B3600008BF5D46284601B0BDE8F08F002617E02CF0E9FB40F4A04612E046F26B060FE05F
:20B3800046F261160CE02AF04FFB064640F2276060F31F1604E0B4F85360202060F39F2686
:20B3A00099F8440000281CBF9AF800005FEAC0702FD19AF80000C0070CD099F8440099F80F
:20B3C0004710084306D046F66220C2F20000008840F4C64699F8140070B1002F5F460CD045
:20B3E00046F61820C2F2000001684A0802604FF4404040EA510600E05F4629F0ECFD002815
:20B400003FF4B1AC2CF07CFF002818BF4EF20106A9E426F050FA46F66221C2F200010880D6
:20B42000C7E745F688210020C2F2000181F852001FF032FE23F0A8FF2CF064FD8EE745F6B4
:20B440008820C2F20000807F04287FF487AF29F008FC83E76FF00F0050FA81F010F10F0FED
:20B46000FFF47CAF45F68820C2F20000427FC8B282423FF473AF45F68821C2F2000148776B
:20B48000002081F852001FF007FE012088F8000089F80E0062E746F6CF20C2F20000012133
:20B4A00001705BE742F69860C2F2000001210170012000211BF076FB50E7002001211BF020
:20B4C00071FB4BE746F6CD20C2F20000017800297FF444AF01210170BAF85E00AAF80000A4
:20B4E0003CE742F69860C2F200000121017046F6CA20C2F2000001707820AAF82A002DE7EF
:20B50000012089F86000307028E7C80705D12BF093FA00202CF02AFF20E7C8B241080228D4
:20B5200042F6766038BF0121C2F20000017001202CF01CFF12E770472DE9F04FADF5077D3C
:20B54000D0F8009006469B461546869148462CF056FE4FF0000A09EB00084FF0FF34002718
:20B56000CDF814A2C14580F0D980839409F101048DF810A2CDE981AA14F8010C002800F022
:20B58000CD80252805D029463460D84701340137F2E73460859781AC3146204600F0C3F86F
:20B5A0002046314686AA00F0DAF830680178A1F168024FEA7202092A2AD84FF0FF34DFE894
:20B5C00002F0050E123232321D3232210146819A11F8013F682B1ED142F400710BE0819943
:20B5E00041F4006111E00146819A11F8013F6C2B14D142F480718191023013E0819941F4F0
:20B60000005102E0819941F480510130819109E04FF0FF3407E042F0200001E042F04000AD
:20B6200081900846017800F1010973298DF81012C6F8009022D0C2466E292CD1819843F6C6
:20B640006071084020284AD040284CD0B0F5005FD0464DD0B0F5007F4ED0B0F5006F4FD03F
:20B66000B0F5805F4FF0000A33D0B0F5807F30D18698FA1702C8C1E900722EE09DF8040297
:20B6800040061DD4CDF800B081A886AA294685AB00F02BF93CE00DF1060881A986AA4046EA
:20B6A00000F076F9909B0246404629469847411CD0464FF0000A18BF38448590074628E06B
:20B6C000CDF800B081A886AA294685AB00F0A6F81EE0869850F8041B0F60869018E0869851
:20B6E00002C80F8002E0869802C80F60D0460CE0869802C80F6008E0869802C80F7004E02C
:20B700008698FA1702C8C1E9007286904FF0000A859F781C7FF426AF4FF0FF3738460DF5C0
:20B72000077DBDE8F08F0A681378202B0AD0232B0AD0302B0AD02D2B0AD02B2B18BF7047CC
:20B74000022306E0042304E0082302E0102300E0012301320A6002681A430260E3E7FEB54C
:20B760000446086816460D4603782A2B11D13068011D31600068B0F1FF3F606005DC4042FD
:20B780006060206840F0010020602868471C2F6018E000210DF10202303B092B07D843183A
:20B7A0005F1C2F60475C5B7857540131F4E70023471853549DF8020020B10DF1020027F0A9
:20B7C00017FF606038782E2827D1781C28607A782A2A08D13068011D31600068A06028681B
:20B7E00001302860FEBD00200DF10201303A092A07D83A18931C2B60537892780B54013047
:20B80000F4E700220A549DF8020028B10DF1020027F0EEFEA060FEBDA260FEBD2DE9FE4F7F
:20B82000054610680C46011D116007680C9AE7B3AE6898469146002E04D438462CF092FBBD
:20B84000864203D338462CF08DFB0646D5F804B00195B246B345C8BFDA46D8F80000CDF899
:20B8600008805044C8F80000B3450FDD01980078C0070BD1AAEB06054FF00008A84505DAA1
:20B8800020202146C84708F10108F7E7DDF808800025B5420FDA57F82500B0F5807F1AD2AC
:20B8A000C0B22146C8470135F3E70020214603B0BDE8F04F1047B34515DD01980078C00759
:20B8C00011D0AAEB06050026AE420CDA20202146C8470136F8E74FF0FF30C8F800002CF0D5
:20B8E0008DFF58210160BDE8FE8F2DE9F84F054610680C46011D116006680A9ACEB3AF6805
:20B900009A469046002F04D430462CF078FC874203D330462CF073FC0746D5F804B0009561
:20B92000B946BB45C8BFD946DAF800004844CAF80000BB450DDD00980078C00709D1A9EB13
:20B94000070A0025554504DA20202146C0470135F8E70025BD4204DA705D2146C047013503
:20B96000F8E7BB4503DD00980078C00706D1BDE8F88F00202146BDE8F84F1047A9EB0705C4
:20B980000026AE42F3DA20202146C0470136F8E72DE9FC4716464FF0000A0D46D1F8048062
:20B9A00040F2FD1120220446CDF800A02CF0A4FE04F5FE7084F8FDA10190287BA0F16301EE
:20B9C000152900F29F8001225E4B8A401A4200F08580694601AA2846334600F0B5F84FF014
:20B9E000000A287BA0F16F014FF0000909294AD8012202FA01F140F24322114243D028784F
:20BA000004EB08072646C007019808D104F2FD116A682646091A9142DCBF791A4E1C411C56
:20BA2000304600224FF4FF734FF000082BF0B8F8BAF1000F01901CBF00F8018B0190B84272
:20BA400007D8391A0138202201312CF055FE002038702878C00605D4311B204620222CF081
:20BA60004BFE35E0A64233D0311B2046302230272CF042FE009850EA09000FD12878400724
:20BA80000CD4204610E05828B9D02868009900F00209002941D001982D214FE031782046E4
:20BAA00000F8011B06F8017B297B41290CD0582905D0612908D0782901D0702908D12A78D0
:20BAC000120701D4612903D1717841703020707020462CF094FB5044BDE8FC8791B93068A1
:20BAE000011D3160006884F8FC01C0B22968B0FA80F04FEA501A21F00201296004F2FB1157
:20BB000001916EE7252803D058283FF462AF69E7252020800120BDE8FC87B9F1000F09D149
:20BB2000400704D50198202100F8011901904FF0000964E701982B214FF0010900F8011995
:20BB400001905CE742302400F8B50546806814460F46B0F1FF3F04DD286820F010002860F4
:20BB600001E00120A860287B1026582807D0782805D0702803D06F2814BF0A260826284675
:20BB8000194600F053F8AA684AB950EA010206D12878000749D52B7B0020002112E02B7B9E
:20BBA000642B04D16423B1F1FF3F0BDC04E0692B08D1002906D5692301223A600022404291
:20BBC00062EB01013246009400F0AAF83021AA68904205DA22680130531E23601170F6E757
:20BBE000287B582818BF782810D1297809070FD521684A1E7028226008BF782008702068CB
:20BC0000411E216030210170287B01E07028ECD06F280AD12878000707D52068417830291B
:20BC200003D0411E216030210170F8BD027B702A3FD0006843F660731840B0F5005F18BF0D
:20BC4000402812D1A2F16400142830D8012303FA00F0324B18422CD110F0210F27D00868E2
:20BC6000021D0A600068C1177047B0F5807F26D0B0F5007F3CD0B0F5006F20D0B0F5805FF2
:20BC8000E0D02028DED1A2F16400142808D8012303FA00F0214B184204D110F0210FDED15F
:20BCA000582A39D10868021D0A60008805E0582A32D10868021D0A60006800217047A2F141
:20BCC0006400142808D8012303FA00F0134B184204D110F0210F01D1582A1DD1086807302D
:20BCE00020F0070000F108020A60D0E900017047A2F16400142808D8012303FA00F0074BE1
:20BD0000184204D110F0210FA9D1582A04D10868021D0A600078D0E70020CEE700081200DC
:20BD2000F8B505461148124E582B069F144608BF064655EA010011D13868421E3A603022AF
:20BD400002700BE02846224600F014F83A68531E3B6000FB14530546F35C137055EA010047
:20BD6000F0D138682CF04BFA0138F8BD36C9030069C90300102A06D0082A09D1C00840EACE
:20BD80004170C9087047000940EA01700909704719B9B0FBF2F00021704780B500232BF053
:20BDA0008BFD80BD8CB046F69A24C2F2000446F68011C2F20001204621F0C2FF40F6E96196
:20BDC00042F68F52C1F20201C2F20002102012F07DFC46F6B000C2F200002CF0FBF946F647
:20BDE0002C17C2F20007386042F69F30C2F200004FF245610090C0F202011020002215233C
:20BE00004FF0000A12F062FC43F2F161C0F2030110200022022312F059FC15F003FE46F230
:20BE20007921C0F2030110204FF0FF324FF0FF3512F04CFC43F67161C0F2030110204FF025
:20BE4000FF3212F043FC29F0ADF84FF0FF3027F08FFB42F6D450C2F200002CF041FB46F203
:20BE60002D3142F64852C0F20301C2F20002102012F02CFC2178502029F042F946F6D94119
:20BE80000246C1F20201102012F020FC2178502029F036F946F62D510246C1F2020110201D
:20BEA00012F014FC45F20D21C1F202011020FB2240F6480312F00AFC47F63971C1F20101E3
:20BEC000102012F003FC46F2A860C2F2000021780580C0E903AAC0F814A0502029F010F9CB
:20BEE000034642F60C60C2F200004FF201510190C0F2010110200422CDF800A012F0E6FB2B
:20BF000045F6EA2B46F68028C2F2000BC2F200082CF067F946F68010C2F2000000680021ED
:20BF20004FF040424FF0FF3311F022FF0028EFD0814604A80DF1130103AACDF80CA01DF016
:20BF40001FF9002840F09180BDF81000102840F0878046F69A21C2F200019DF81300097857
:20BF6000884240F07D80039E4FF6FF713088884200F076803078B02800F06C80D02840F088
:20BF80006F80B078112800F26B80DFE810F0120069006900690069009001D301180269000F
:20BFA0006900690069006900690069006900690032027078002853D1B079F17A8DF81400A4
:20BFC000B6F807008DF81B10ADF81500B6F809000821ADF81900002005AAADF817A016F073
:20BFE000FBFD9BF830002BF0A5FD9BF8311042F6D424C2F20004607508462BF0D1FB40F2D1
:20C00000991141F6A112C4E901001020C1F20101C0F203022346CDF8008012F057FB00063A
:20C0200040F0B28245F68821C2F2000191F86100D1F80660D1F83B10002842F6B420C2F2EE
:20C040000000C0F8051000F0378226F0404629F0EBFC38E2317906F108002CF0F3FF00BF3E
:20C060000398002818BF22F023FE5FEA490042F6B269C2F200097FF54BAF05E012F026FBDB
:20C0800023E0304622F0E0FD38682CF083FA00287FF43EAF38682BF01FF80028F4D006466D
:20C0A00000780138072810D8DFE800F0150F20263141047F98F8002047F2ED411020C1F2A8
:20C0C00001010023CDF800A0D8E77068002818BF22F0BAFDD5E77468206802286FD00128C5
:20C0E00075D10120022110F0FDFF70E07068B0F801001DF049F9C4E742F6996198F800200D
:20C100009BF832400120C2F200010870C7E098F8002040F265211020C1F2020112F0D6FA05
:20C1200042F69960C2F2000080F800A0CDE799F800008DF82FA0A0B19BF8300089F800A034
:20C140002BF0F8FC98F800204BF689018DF82F001020C1F2010107230DF12F05009512F0C9
:20C16000B5FA42F68F60C2F200000078002851D042F68F6098F80020C2F2000040F2652131
:20C1800080F800A01020C1F2020112F09FFA42F6F930C2F200000078CDF814A001281FD1E7
:20C1A0009BF85B002BF006FB1EE098F8002040F265211020C1F2020112F088FA85E726F023
:20C1C000ADFE42F62940C2F2000080F800A02068B0F1004F3FF479AF606822F035FD74E70D
:20C1E0009BF831002BF0DCFA4BF6890598F80020C1F20105059010202946012305AC0094B5
:20C2000012F064FA98F80020102029460223009412F05CFA98F8002048F259111020C0F228
:20C220000201002312F052FA000624D142F6F930C2F20000007898F8002001280CD10A2022
:20C2400044F2FD7142F6245400901020C0F202010023C2F200040BE01F2044F2FD7142F634
:20C26000B42400901020C0F202010023C2F20004019412F02BFA42F6F930C2F2000000784D
:20C2800098F80020012808D1BBF85C4047F2ED411020C1F20101012307E09BF8324047F208
:20C2A000ED411020C1F2010102230094E6E647F631111020C0F2030112F008FA707800286D
:20C2C0007FF4CEAE40F2BA10C4F20E00A0F800A046F2A860C2F2000000884FF6FF7188427C
:20C2E00040F04B81748946F2A866C2F20006032034802CF04EFB0028706000F03C81032140
:20C3000001707068A0F8014024202CF042FB314676680028886000F02781012100914FF669
:20C32000DD51C0F2020141F270720023019624F0BFF91CE147F631111020C0F203014FF6D8
:20C34000FF7412F0C3F946F2A863C2F200030290B5881888002200BF11461AB9A84201F15C
:20C360000102F9D1002940F08C809E689EB130462CF083FB10B130462CF083FB30462AF0C5
:20C3800083FD304622F060FC46F2A860C2F20000406822F059FC46F6C800C2F20000066810
:20C3A00001E000BF36687EB33089A842FAD146F6C800C2F20000314629F05EFBF2E7B288EC
:20C3C0004DF6F9411020C1F2010105AB12F07EF946F6C800C2F200002AF024F800283FF489
:20C3E0003FAE064600891CF0CFFF304622F02CFC36E6B07BB1888DF81E007089ADF814100C
:20C4000060B18DF81FA015E0A01E80B285421AD146F2A8620121C2F200022AE0D6F8061028
:20C42000ADF81A00CDF81610B1890120ADF81C108DF81F0045F2D9711020C1F2010105AA6D
:20C4400012F044F90CE646F2A861C2F200010A88002600BF002E3146334618BF012103D153
:20C46000AA4203F10106F5D146F2A862C2F200023BB9854211BF00291480C2E903AAC2F8BD
:20C4800014A00298000605D146F2C020C2F200002CF0F7FA2BF058FE00283FF4E1AD00201F
:20C4A0002BF059FE322016F09AFD42F6AB610120C2F200010870D3E56FF3DF5629F0B4FA73
:20C4C000072161F31F1042F6B424C2F20004A07398F800201F2044F2FD7100901020C0F2D1
:20C4E00002010023C4F80A60019412F0EFF8000654D129F099FA00284FF0410118BF2828CB
:20C5000003D02A2814BF5321502146F6A403C2F20003186842F68836C2F200063173C6F812
:20C520000D0018895968A6F8150098F80020C6F81110172044F2FD7100901020C0F20201FA
:20C540000123019612F0C2F8000631D198F800204EF61D711020C1F20101D22312F0B6F850
:20C5600000063FF47DAD2DE0304622F06DFB46F2A866C2F200060120307546F2C020C2F2C9
:20C5800000002CF07CFA6BE500208DF82F0000BF9DF82F0001308DF82F00F9E700208DF8F8
:20C5A0002F0000BF9DF82F0001308DF82F00F9E700208DF82F0000BF9DF82F0001308DF8F7
:20C5C0002F00F9E700208DF82F0000BF9DF82F0001308DF82F00F9E72DE9F04F9FB046F650
:20C5E0002419C2F20009D9F80010044609B18847F8B146F2F418C2F20008012098F80160D2
:20C6000088F80F0046F62010C2F2000000684FEA463B98F802A015AA594604232BF078FD02
:20C62000159800F44030B0F5403F04D198F8050008B900208AE3D9F80010F8208DF85C0033
:20C640000594B1B188470B24002818BF0024A0B146F62010C2F2000000684BF0060104257A
:20C6600017AA012300952BF05CFA002848BF012404E0002401200028EAD10B2446F675206F
:20C68000C2F2000004709DF8540006EB460108EB810470284FF0F800149120762BD0D9F803
:20C6A000001070208DF85C00B9B188470B25002818BF0025A8B146F62010C2F2000000688B
:20C6C0004FF0040C17AA59460123CDF800C02BF028FA002848BF012504E00025012000281E
:20C6E000E9D10B2546F67520002DC2F20000057004BF7020A07546F62010C2F20000006839
:20C700004FEA4A3115AA04230A912BF001FD9DF85400FE282ED0D9F80010FE208DF85C00DE
:20C72000B9B188470B25002818BF0025A8B146F62010C2F2000000680A994FF0040C17AAD8
:20C740000123CDF800C02BF0ECF9002848BF012504E0002501200028E9D10B2546F67520CE
:20C76000C2F2000005702DB90AEB4A0008EB8000FE218175D9F80010FE208DF85C0029B129
:20C7800088470B25002818BF002501E00025012046F67529C2F20009019488B146F620107E
:20C7A000C2F200000A99006841F00601042417AA012300942BF0B5F9002848BF012500E0E3
:20C7C0000B25149A08F116000AEB4A0100EB82020696089100EB8103FE21D28898F80160AF
:20C7E00003F8021F002189F80050A8F8122089F8001098F8022006EB460100EB810140F23F
:20C80000D817CD8802EB4201C1F2000700EB8101CDF81CA0386831F806AF44F200040391B0
:20C820008168C4F203042046CDF808B0049309928847396880464A6820460021904700BF38
:20C8400038688168204688470028F9D146F6201708F0030073030DF15C0BC2F20007D0460E
:20C860000B90149312E000BF07EB040A46F62017149BC2F2000716F001004FF003001CBFC4
:20C88000002000200028554640F0E380ACB2172CC0F0DE8099F80000002840F0DD80EE1F00
:20C8A000386813FA86F15A4607232BF031FC9DF85F209DF860C002F03F029DF862109201AC
:20C8C0002B4642EA9C05B1F1960005F1100218BF0120A2421396A6EB050603D9A3F1010A3E
:20C8E00053E000BF962912934CD10D909DF861004FEA8C110C9041EA9000DDF850A0CDF87B
:20C9000044800E902C1D0CF0FC004FF0000810958DF85B000F9600BF1FFA84F9B9F1200FD5
:20C9200028BF4FF0200938681AFA86F15A464B462BF0EEFB5FFA88F059464A4629F00CFE25
:20C94000A4EB0904804620044E44E5D140460DF15B01012229F000FE0E99C9B28842129859
:20C960004FD10C980D9900F003000843023818BF012046F67529DDF84480DDF84CA0002188
:20C9800047E000BF1298A0F1010A149B01210020002945D01FFA8AF016284FF0000688BFDF
:20C9A00001261728FFF467AF0126544609E000BFA0B216284FF0000688BF0126149B17286E
:20C9C00043D3A0B2A4F11607362846F6201088BF2027C2F20000E41B0068BDB213FA84F1D9
:20C9E0005A462B462BF094FB002DE1D01BFA87F010F8010C96283FF437AF013F3804F5D1E4
:20CA0000D6E746F67529DDF84480A0F1010A01210020C2F20009149BDDE90F650029B9D1AF
:20CA200078B9EC1D42F2000114FA88F0C1F200110A1A386813FA86F123462BF069FB149B5E
:20CA4000A044AAEB050A00201CE746F6201710E7AA4699F8000068B140F2D810C1F200005A
:20CA600000680B99426844F20000C4F20300904700206BE146F62419C2F20009D9F80010B7
:20CA8000444629B188470B25002818BF002501E00025012046F2F416DDE906B8C2F2000668
:20CAA000B0B10999C4F50052A4F11003386849030427C1F2001210319BB2009746F620174C
:20CAC000C2F200072BF02DF8002848BF012500E00B2546F67523C2F2000340F2D8111878C0
:20CAE000C1F20001096828434A68187044F200000B99C4F20300904703986FF0D24117914D
:20CB0000D9F800100480707B728AA6F814A034828DF85E00ADF85C20B9B188470B2400282D
:20CB200018BF0024A8B10999386849030427083117AA0423009746F62017C2F200072AF0E8
:20CB4000F0FF002848BF012404E0002401200028E9D10B2446F675206FF0D241C2F2000061
:20CB60001791D9F800100470B07BB28A8DF85E00ADF85C20B9B188470B24002818BF0024C2
:20CB8000A8B109993868490304270C3117AA0423009746F62017C2F200072AF0C2FF002896
:20CBA00048BF012404E0002401200028E9D10B240599308A002908BF1021C0F500508842C7
:20CBC00046F67520C2F2000004701BDAD9F8001078208DF85C0089B388470B24002818BFD4
:20CBE000002478B3386804270A9917AA0123009746F62017C2F200072AF093FF002848BFF3
:20CC0000012420E0D9F800107C208DF85C0011B388470B24002818BF002400B3386804272E
:20CC20000A9917AA0123009746F62017C2F200072AF077FF002848BF012411E0002401208D
:20CC40000028CFD10B2446F67525C2F200052C70BCB978200DE0002401200028DED10B246D
:20CC600046F67525C2F200052C7054B986F803807C20089946F6752506EB8101C2F200053C
:20CC8000887558460CF098FBD9F800102870FC208DF85C00B9B188470B24002818BF002469
:20CCA000A8B10A993868042741F0060117AA0123009746F62017C2F200072AF032FF002858
:20CCC00048BF012404E0002401200028E9D10B2446F67520C2F2000004990470FC200870C4
:20CCE0000898D9F8001006EB8000808BF0804FF0FE0086F802B086F8018086F803808DF8D5
:20CD00005C0029B188470B24002818BF002401E00024012046F67525C2F2000558B138685E
:20CD20000299042717AA012300972AF0FAFE002848BF012400E00B242C7014B90199FE201B
:20CD40008875F18800207071C1F5005000B21FB0BDE8F08F2DE9F84F012027F005FE0128F0
:20CD600016D1DFF8C476387800212CF05FF9040004BF002028F05EFD00202072201D1DF020
:20CD800075FA08F0ADFD050003D181202CF046F946E30120687107200AF085FEDFF88C96ED
:20CDA000DFF88C2699F80100401C89F80100A879A0724020397811701AF04CFC2860616D0D
:20CDC0004A78206DD10620D5816C0A681179032908D0816C0868007903280CBF012000203E
:20CDE00028F028FD206D816C0A6890F86C0002F1080601281CBF002028F01CFD216D486F7B
:20CE0000296800F5B060C8604EE0C16E0A681179032908D0C16E0868007903280CBF0120C8
:20CE2000002028F007FD206DC16E0A6890F8980002F1080601281CBF002028F0FBFC216DA6
:20CE4000B5F87431D1F8A0002968DFF8E825C86096F82670DFF8E005032F1FD8DFE807F0B3
:20CE600002061014CA6802F5B06202E0CA6802F53472CA6005F59A7201881187038811E0CD
:20CE8000C86800F5355002E0C86800F6B870C86005F59A7011880187138803E0C86800F5C8
:20CEA000B060C860A5F8743106222868DFF88C75C16801F59071C160B11C3078C0F380106F
:20CEC00085F82E0105F12C0805F594702AF058FD042206F10E0105F124002AF051FD3868C1
:20CEE00095F806C000F10C03042206F10E0103EB4C102AF045FD032206F1120105F12800C0
:20CF00002AF03EFD3868AB7900EB4313032206F1120103F110002AF033FD707D88F80200CB
:20CF2000022206F1160105F130002AF029FD022206F1180105F132002AF022FD022206F1A9
:20CF40001A0105F134002AF01BFDB8F808006884022206F11C0105F136002AF011FD98F89A
:20CF60000200B8F80A10400088F802000901B8F80400A8F80A104000A8F8040089B2B8F8DC
:20CF800006004000A8F8060003046A8C521CDB0B5A438A4201D280B238B9DFF8A4040078FE
:20CFA000802119F03DFB3B2133E105F12E0128462CF030F80520A88128462CF027F805222A
:20CFC00006F11E0105F161002AF0DAFC96F82300400988F800002CF015F8688205F59A7261
:20CFE000618D401AD08005F1610196F8230000F01F0088F80F0028462CF000F8616D4A78E0
:20D00000206DD1064CBF816CC16E0868DFF83464002101714FF01C0AA97930681AFB01F1ED
:20D0200041F6210242520021AB791AFB03F303445980AA791AFB02F210444160616DDFF8CC
:20D0400008044A78D1060DD5DFF800148A7851060AD5DFF8FC23138841F20A418B4208BF83
:20D06000DFF8F003C5F89C01D5F89C11284688473268A97902F10E031AFB01F15854AA793F
:20D0800030681AFB02F202440020D0733168A87901F10E021AFB00F0115C88F80D10606DAE
:20D0A0004178CA061DD595F8960108B928F0C2FBA97930681AFB01F1014495F89601421EB1
:20D0C0000A74A87931681AFB00F00844002141743268A97902F112001AFB01F10022425273
:20D0E0002BE0A97930681AFB01F10144206D90F840200A74A87931681AFB00F00844216D93
:20D1000091F841204274206D3168AB79403001F112021AFB03F34188D15205F5CB7100780A
:20D12000012200F0030082400A70226D92F84000800814BF0120022008713168A879DFF89C
:20D1400018B301F1140239681AFB00F301EB4010D050A87931681AFB00F00844BF49816102
:20D16000DBF814000078C1074CBF1F200F20DBF8141009788A0748BF40F02000DBF81410B8
:20D1800009784A0748BF40F04000DBF8141009780A0748BF40F080003968AA7901EB421301
:20D1A00018723868A97900EB41120B2050723968AA7901EB42100421A94A8172107801283A
:20D1C00006D13968A87901EB40120121D17207E0DBF824003968AA79407801EB4213D8722E
:20D1E0003968A87901EB40121F2111763868AA7900EB421100204876A8791AF0DBFDAA7963
:20D20000396852018850AA7939685201885820B90721284628F020FD02E19248AA7901685E
:20D2200001EB02102BF0E6FEA87939688D4B01EB4012196801EB00105060A979386800EB3F
:20D2400041125168C8F83C10AA79520181587C48C8F844100421007819F0E2F9616D4A787E
:20D260003068D10648BF02210AD4A9791AFB01F101440A7C02F00302022A14BF0421062101
:20D28000B8F8042095F806C04FF4C8738A18698AAA615143B1FBF3F35B1C6B611AFB0CFCC3
:20D2A000D5F800E06044DEF80CC040F6C41101FB02C2D21AA2F5A8628260AA7930681AFB71
:20D2C00002F283189A682B689A6000F10C03AA791AFB02F20C309B5C03F0EF038354A879F4
:20D2E00032681AFB00F002F10C030C321B5C03F07F031354A87932681AFB00F002F10C033A
:20D300000C321B5C03F0F00343F002031354AB7930681AFB03F31844427B02F0F00242F0DD
:20D3200001024273AA7930681AFB02F2024490682B6818613868AB7998F802C000F114020A
:20D34000686940005B0111FB0C0000F5F660D05095F8960104280DD13A68A87902F11403E2
:20D360004FEA401C143253F80C00AB795B0100F56160D0503868AA7900F114034FEA421CC3
:20D3800053F80C20C5F83421AA7900EB4210C37C03F0F00343F00403C374DBF830003A6869
:20D3A000AB79006802EB431CB8F8062042436423B2FBF3F35943A1F59661CCF81C10386867
:20D3C000A97900EB4110C27E02F0F00242F00402C276A97930682A681AFB01FA00EB0A0109
:20D3E000516095F8FD00010703D50E2128462BF0FDFD1D49072008702046AA7989F802202F
:20D4000026F0EAFD19488178880704D5AA79002120462BF0E7FD28681549164A41618261D1
:20D42000BDE8F14F2BF040BBD50F0020780E0020D70F0020900F00208E0F00209C0E0020FB
:20D44000C70F0020980E002081010210C00C00209A0F00204DE5011070C30300980C00208A
:20D46000CC0F0020A40E0020C80F0020200E0020A13B0200020480802DE9F04F054687B0DF
:20D48000A978DFF8E066002710294FF0060A3CD8DFE811F0110063036303630363033C00DE
:20D4A000CC0063036303C7021201FD00180363039902DE025B036878002826D12BF08EFDFC
:20D4C00004462BF087FD05462BF080FD8DF8000022461021022028F023FC2A461021032045
:20D4E00028F01EFC6A460121042028F019FC9DF80000012818BF032807D101202BF062FDA4
:20D5000002460621062028F00BFC26E368780028FBD195F80CB06C8900900023E97801AA7D
:20D5200001F00101281D1BF0B5FA00284FF0010872D19DF80400FCF78EFF8146BBF1080FA3
:20D5400008BFB846307A80002AF084FD050003D1042028F06FF900E3707802280CBF0120E3
:20D56000002000905B469DF804104A462046FDF7D6F91422002102A82AF0F8F99DF8040053
:20D580001AFB00F002AA1021243028F0B5FBA8B91022FF2102A829F04EFB78B99DF8040004
:20D5A0001AFB00FA06AA04210AF1250028F0A4FB02AA09F0010120462BF000FD317A9DF84B
:20D5C000040089062A46090EE03028F095FB98B92846FCF7A8FEBA4609E005EB800001883F
:20D5E00019B18278204629F05BF90AF1010A317A5FFA8AF08842F0D3B07A30B95FEA89702E
:20D6000003D53178204628F013FB9DF80400FCF75DFF28462AF016FD7078022805D1B8F1E9
:20D62000000F02D0204622F01BFB96E2A888FDF7A5FA2BF0BBFC0028F7D1F07D012808D10F
:20D64000FCF793FFF279706AF77500212AF08EF917E0307E012803D1FDF72FF8377610E078
:20D6600000240AE0706AE5B2415D012904D1E0B2FCF78CFF716A4F55641CE0B2F1798842B9
:20D68000F0D3502029F08CF9FCF7F9FE65E22BF0FDFC00280CD0F06900281CBF0468002C7C
:20D6A00007D0286900906B7B2A7B6989E81CA04752E26889012145E268780024002840F040
:20D6C000DA80A879C10740F1D6800822002105A82AF04CF9A8882BF001FD040000F08E80DE
:20D6E0006F694FB30622002107F1110029F0A3FA68B310220021384629F09DFAD0B9387C6F
:20D7000000F001084FF0000909F1010987F811900020009000230022414607F111001BF014
:20D72000B9F900285FFA89F002D10028ECD101E000280CD1002068610622607900F00100C4
:20D740008DF81A00A11D05A82AF01AF91FE06F69EFB1387C00F001008DF81A00062207F1B7
:20D76000110105A82AF00CF96079012805D10622A11D04F10C002AF003F9062207F11101C4
:20D78000A01D2AF0FDF8387C40F002006071A879410720794CBF40F0020000F0FD00207149
:20D7A000A9790A0754BF00F0DF0040F020002071A9799DF81B00DFF8B083890801F0010113
:20D7C00008438DF81B004FF0FF09A979C90801F0010140EAC1008DF81B00FF2469691E276C
:20D7E00079B3102268462AF0CBF8102168462BF0D9FB4FF0000BDFF874930CE0FDF7E0F991
:20D800000028D5D03078042118F00AFFD0E70BF101005FFA80FB99F80000834510DAD8F8C2
:20D82000001007FB0BF00A5CFF2AF0D0084400F10D011022684629F089FB0128E7D15C4641
:20D84000A1460020009000239DF81A1004AA05A81BF020F9B9F1FF0F5DD034285BD1707D76
:20D8600030B3012857D1A88805212BF00BFC0124A888FDF783F968780B2804BFA888FDF73D
:20D88000BFF9F06900281CBF4368002B0FD06A78A888012198476878002808D1A879C107E2
:20D8A00005D5F369A88822465C680321A0474CE1D8F80000002117FB09F90091002310F8DD
:20D8C0000910401C04AA48441BF0E4F818BB9DF81000FCF75BFEF0B9FCF7D1FDFCF722FE71
:20D8E0008DF81000E86800280CBF00210169002201900392029105A9686900902B69AA6835
:20D900009DF81000FCF723FD0446A888FDF74CF8200046D14BE00020009000239DF81A10A9
:20D9200004AA05A81BF0B6F820B1FCF7FBFD8DF8100019E06869B8B19DF810001AFB00FA9B
:20D940006A4610210AF1230028F0D6F960B91022FF21684629F06FF930B99DF81A0005A901
:20D9600000F001002BF0B2FB9DF81000F179884227D2E86800280CBF00210169002201909B
:20D980000392029105A9686900902B69AA689DF81000FCF7DCFC0446A888FDF705F82000AF
:20D9A00005D09DF81000FCF7F1FDFCF768FD200008D1707A0028A8887FF45BAFFDF792F87E
:20D9C00059E7152454E7687806281FD1A8882BF085FBD8B1317D491E032917D8DFE801F059
:20D9E000020E08134179A8880022FDF72DF80DE00022002140F2094006F05AFEA888052188
:20DA00002BF040FB02E0A888FDF7FAF8F06900281CBF4368002B03D06A78A888022198479F
:20DA20009AE000970023E97801AA01F00101281D1BF030F80028F3D19DF804001AFB00FAA7
:20DA400005F10C0204210AF1250028F069F983E0F06900281CBF4368002B03D0A888002249
:20DA600000219847707810B9A88805216AE0A8882BF034FB040070D0A87AC10712D500972F
:20DA800000236179002201F00101A01D1BF002F800281EBF60790028012803D0E868C0F3AD
:20DAA000402028B1707C022807D1A87A010704D4A88803212BF072FA4FE06179A88805F133
:20DAC000080227E02F7BAD8828462BF007FB040042D02BF0DBFA00283ED100900023617901
:20DAE00001AA01F00101A01D1AF0D4FF28BB9DF80400FCF7B0FC07F00C07042F11D0082F7E
:20DB00000BD00C2F0FD100F0090109290BD0617900222846FCF798FF1EE010F0090F02D12B
:20DB2000F5E7C107F3D501220092A37C9DF8041002462846FCF7F3FE0EE070780028E6D1AD
:20DB4000052128462BF02AFA06E0FDF739F818B13078042118F064FD0127384607B0BDE8E6
:20DB6000F08F00BFB41F0020680F0020AB6A00202DE9F04F81B045F68821C2F20001002069
:20DB800081F8520042F6AE61C2F20001087045F20D5142F6B36BC2F2000144F6E872C2F25E
:20DBA000000B088088704FF0FF31C2F200028BF8000000BF531801315870F92900F10100FA
:20DBC000F8D146F68C17C2F2000746F2584442F6CE6642F686613868C2F200044FF0000AE2
:20DBE000C2F200060425C2F20001C4E900AAC4E902AAC4E904AAC4E906AA8BF800A035705D
:20DC000081F800A023F03DF8386832782146002328F090FC4FF0000804E000BFB9F1580F30
:20DC200000F0AE8227F08BFC2AF0DBFA9BF8000001282BD142F68660C2F20000007831788C
:20DC40004FF0000988420DD1E0780D280AD194F80090B9F1580F00F09382B4F8010000BAD3
:20DC60004FEA1048386842F68661C2F200018BF800A0357081F800A023F003F83868327866
:20DC80002146002328F056FC02E000BF4FF00009A9F131002728C5D8DFE810F05100620076
:20DCA000730082009A00AB00BC00CB00DB005000500050005000500050005000EB00FB00B2
:20DCC0000B011B012B0128003D014F016101700180019001A001AF01BE01CF01E101F001A2
:20DCE000FF013302420251026302720244F6E845C2F2000528464FF480712AF083FD4620BD
:20DD0000287027F091FE45F6882268706B20C2F20002A870D2F806001168C5F8030090888E
:20DD2000C5F80710A5F80B000D213868697329460E22002304252AF046FA6FE772E744F68F
:20DD4000E841C2F2000140F6315238680A80022200232AF038FA1FFA88F00DF0CBFD5DE7D5
:20DD600044F6E841C2F2000140F6325238680A80022200232AF027FA1FFA88F00DF098FA05
:20DD80004CE744F6E841C2F2000140F6335238680A80022200232AF016FA11F051FC3DE770
:20DDA00044F6E845C2F2000528464FF480712AF029FD40F6345138682980294602220023A7
:20DDC00004252AF000FA1FFA88F013F03DFF25E744F6E841C2F2000140F6355238680A802B
:20DDE000022200232AF0EFF91FFA88F004F0ECFF14E744F6E841C2F2000140F636523868F9
:20DE00000A80022200232AF0DEF91FFA88F018F0D5FA03E744F6E841C2F2000140F6375217
:20DE200038680A80022200232AF0CDF90CF0DAFFF4E644F6E841C2F2000140F6385238686A
:20DE40000A80022200232AF0BEF9012008F094FEE4E644F6E841C2F2000140F63952386832
:20DE60000A80022200232AF0AEF9022008F084FED4E644F6E841C2F2000140F64152386839
:20DE80000A80022200232AF09EF901200DF0DAFAC4E644F6E841C2F2000140F642523868E2
:20DEA0000A80022200232AF08EF903200DF0CAFAB4E644F6E841C2F2000140F643523868EF
:20DEC0000A80022200232AF07EF9012010F056FBA4E644F6E841C2F2000140F64452386860
:20DEE0000A80022200232AF06EF9022010F046FB94E644F6E841C2F2000140F6455238686E
:20DF00000A80022200232AF05EF91FFA88F1012014F0D4FB82E644F6E841C2F2000140F683
:20DF2000475238680A80022200232AF04CF91FFA88F1042014F0C2FB70E644F6E841C2F294
:20DF4000000140F6485238680A80022200232AF03AF91FFA88F1082014F0B0FB5EE644F64B
:20DF6000E841C2F2000140F6495238680A80022200232AF028F916F001F84FE644F6E841AF
:20DF8000C2F2000140F64A5238680A80022200232AF019F900200BF0FBFA3FE644F6E841C5
:20DFA000C2F2000140F64B5238680A80022200232AF009F901200BF0EBFA2FE644F6E841D3
:20DFC000C2F2000140F64C5238680A80022200232AF0F9F802200BF0DBFA1FE644F6E841E2
:20DFE000C2F2000140F64D5238680A80022200232AF0E9F80FF048FB10E644F6E841C2F2DC
:20E00000000140F64E5238680A80022200232AF0DAF810F05FF901E644F6E841C2F2000175
:20E0200040F64F5238680A80022200232AF0CBF81FFA88F00FF0EEFDF0E544F6E841C2F254
:20E0400000014FF4556238680A80022200232AF0BAF81FFA88F0000A0CF01EFDDEE544F6D9
:20E06000E841C2F2000140F6515238680A80022200232AF0A8F80FF06BFCCFE544F6E84141
:20E08000C2F2000140F6525238680A80022200232AF099F813F0F2FFC0E544F6E841C2F225
:20E0A000000140F6535238680A800222002300252AF089F842F6AE610120C2F200010870BE
:20E0C00004203070386842F68661C2F200018BF800500D7022F0D5FD3868327846F25841B9
:20E0E000C2F20001002328F025FA45F68820C2F20000022180F85A50042581771CF0CCFF3D
:20E100008CE544F6E841C2F2000140F6545238680A80022200232AF056F811F071FF7DE5EE
:20E1200044F6E841C2F2000140F6555238680A80022200232AF047F817F022FA6EE544F670
:20E14000E841C2F2000140F6565238680A80022200232AF038F81FFA88F1022014F0AEFAE8
:20E160005CE544F6E841C2F2000140F6575238680A80022200232AF026F80EF0CBFC4DE5C7
:20E1800044F6E841C2F2000140F6585238680A80022200232AF017F801B0BDE8F04F27F041
:20E1A000CEB970472DE9F04F85B00D460295044615F8011B8DF801100022DFF8E8148878AF
:20E1C0008DF8002004F1660B29F0F4FE01902C219DF80100DFF8D024032804F1F40604F5D7
:20E1E000B07A04F59C7704F5C87804F2171900F0E180072800F01582082818BF092811D06A
:20E200000C2800F0D9810F2811D0112800F04681182800F094811A2800F059811B2800F0F4
:20E220007E811CE22946204620F02EF817E2707ADFF8788481070AD40F2089F802002046A2
:20E240002AF08CFE002872D198F80000DEE12878697800EB01223A82A878E97800EB012286
:20E260007A822879697900EB0122BA82A879E97900EB0122FA82287A3876697AA87A01EB87
:20E2800000227A83E87A297B00EB0122BA83687BA97B00EB0122FA83E87B297C00EB012266
:20E2A0003A84687CA97C00EB01227A84E87C297D00EB0122BA84687DA97D00EB0122DFF845
:20E2C000F003FA8401788A0658BF4FF01A0A13D504F5AA700490798B0391387E0290218931
:20E2E0000191F88A0090BB8A7A8A398A20462AF031FEE8B14FF01E0A707A41070AD40F2080
:20E3000089F8020020462AF029FE00280FD198F800007BE152460F2120462AF017FEF88A00
:20E320000090BB8A7A8AA179504622F0A5FE74E104F18600798A81800023BA8AC2800222FE
:20E34000F98A018102704380A18EC91DABF81E10628E8188B1EB520F02BFC188A28E91429A
:20E3600002BF0089E18EB0EB111F21D09BF81000012804BF9BF811000F280CD09BF815003A
:20E3800000281CBF9BF811001A2804D00F218BF81A10FE217EE0FC2120462AF027FEF88A22
:20E3A0000090BB8A7A8A398AA0792AF0C7FD34E110216FE0707AC10709D431781A20012999
:20E3C000707002D1FF220D213DE00D2162E000208BF800008BF80600012232712946082223
:20E3E00004F1B0002AF0A6FD0146022204F1B8002AF0A0FD04F1A8050146082228462AF051
:20E4000099FD0746082128462AF0CCFD04F19C050422394628462AF08DFD042128462AF0A5
:20E42000C1FD04F1A0002AF081FD04F198002AF079FDA048018841F080010180307801285F
:20E4400005D1FF22042120462AF068FDE5E09BF811600F2E18BF142E07D00E2E18BF0C2E78
:20E4600003D01A2E18BF162E13D19BF8107020462AF050FD042120462AF0B8FD012F06D141
:20E480008BF81A601A2E14BFFD21FB2102E0314600E0042120462AF0A9FDBEE028788AF8E6
:20E4A00000001A286B788AF8013040F0D8801068A679431C4E4300209855A379126811FBC6
:20E4C00003F111440871A1799AF80100C0E0A77910682E784F43074406F01F0317F8210FBB
:20E4E000B60938B17878F040C00703D598F80600042805D120221A2120462AF027FD8CE090
:20E50000FB701068A27911FB02F10144204681F8236000212AF07DFA0028F0D174E0A3794C
:20E5200010684B430344D88808B900265E701068A27911FB02F10144002008716DE06978DB
:20E540002878884204BF084010F0070F6DD19BF81100162806D198F80620A17913460020F0
:20E5600017F0F8FF022088F80200012101984177012398F8060098F80A1088F80000BAF8F0
:20E580001C202AF0C3FCBAF81810814209D3BAF81C2098F80A1098F8000001232AF0B6FCD5
:20E5A0000146AAF82E10012198F8080040F0400088F80800397030E0707E012810D015F8C5
:20E5C000011B31770222294604F589702AF0B2FC0146022204F58A702AF0ACFC0120707603
:20E5E0009BF8060030B93D21012289F8011089F8002012E0F07E002804BFB07E00280CD167
:20E6000020462AF07FFC30B9284800784FF4804118F006F801E00120F07601218DF8001005
:20E6200021E028780F2816D01A2818D1A07913684843184400234370A079126811FB00F110
:20E6400050180371F07A00F0FB00F0721A20A17905F0D5FBE1E7707A00F0FD007072204627
:20E6600002992AF04BFC9BF811001A2815D19BF8120017281CBF1028FC280ED19BF81060D5
:20E6800020462AF047FC012E03BF1A208BF81A00FB211A2120462AF0A9FC9DF8000005B029
:20E6A000BDE8F08F780E0020A4690020C70F0020200E00209C0F00202DE9F04F89B04CF684
:20E6C000BC11C0F20301002818BF014691E80D0046F2C476C2F20006C968C6E9000242F6A5
:20E6E000BE60C2F200000078B3600128F16010D146F63010C2F20000006800210FF094FE18
:20E70000002868D046F67010C2F20000006811F06FFF42F6ED67C2F20007387800BB46F268
:20E720003844C2F20004204629F0A4FE42F6FC51C2F2000170680968216020B1B16800296D
:20E7400018BFC4E905014FF6A260C8F20000E0610120387046F27840C2F2000028F0B2FDB9
:20E76000F06846F64011C2F20001086046F29851C2F200010020C1E90300486143F605020B
:20E78000C1E900000A804A7B886002F0F00203324A734BF209020A82CA7D087302F0F00248
:20E7A0000432CA7544F620628A61317842F6F564C2F200040729207062D8DFE801F0300465
:20E7C0003B240410104C27F06BF9002857D027F067F903383CE0092009B0BDE8F08F1DF0BF
:20E7E000F2FE082822D027F05BF9042803D11DF0EAFE0C283FD127F053F905283FD11DF0B6
:20E80000E2FE173824E01DF0DEFE411FA0F10500B0FA80F018BF01214009A0BB92E027F0A6
:20E820003FF918B127F03CF9032824D10120002148BB87E027F034F908B327F031F9032854
:20E840001DD027F02DF9042819D027F029F9053818BF012014E01DF0B6FE0C280BD01DF03A
:20E86000B2FE0D2807D01DF0AEFE0E2803D01DF0AAFE172803D10121012020B962E00020D4
:20E88000012100285ED042F62820C2F20000027833789A4242F62062C2F2000206D14369D8
:20E8A0004FF0010C10601BB184F800C04FF0000C1268002A46D042F6B413C2F200031F7D3D
:20E8C00096684CF2070437751F69966846F2983E377497681E693D69360A66F31C253D6162
:20E8E0009768DE89FD89C2F2000E66F30205FD81DF89956843F6F8763740EE8906EA040698
:20E900003744EF819768DE8AFD8A66F30505FD825F8B96689EF80E5077831F8C9668378402
:20E9200005F0C70707F108078EF80E709768B1B146F2242179CFC2F2000179C197E87900FC
